{
  "contractName": "SolnSquareVerifier",
  "abi": [
    {
      "inputs": [
        {
          "internalType": "address",
          "name": "_verifierContract",
          "type": "address"
        }
      ],
      "stateMutability": "nonpayable",
      "type": "constructor"
    },
    {
      "anonymous": false,
      "inputs": [
        {
          "indexed": true,
          "internalType": "address",
          "name": "owner",
          "type": "address"
        },
        {
          "indexed": true,
          "internalType": "address",
          "name": "approved",
          "type": "address"
        },
        {
          "indexed": true,
          "internalType": "uint256",
          "name": "tokenId",
          "type": "uint256"
        }
      ],
      "name": "Approval",
      "type": "event"
    },
    {
      "anonymous": false,
      "inputs": [
        {
          "indexed": true,
          "internalType": "address",
          "name": "owner",
          "type": "address"
        },
        {
          "indexed": true,
          "internalType": "address",
          "name": "operator",
          "type": "address"
        },
        {
          "indexed": false,
          "internalType": "bool",
          "name": "approved",
          "type": "bool"
        }
      ],
      "name": "ApprovalForAll",
      "type": "event"
    },
    {
      "anonymous": false,
      "inputs": [
        {
          "indexed": true,
          "internalType": "address",
          "name": "previousOwner",
          "type": "address"
        },
        {
          "indexed": true,
          "internalType": "address",
          "name": "newOwner",
          "type": "address"
        }
      ],
      "name": "OwnershipTransferred",
      "type": "event"
    },
    {
      "anonymous": false,
      "inputs": [
        {
          "indexed": false,
          "internalType": "address",
          "name": "account",
          "type": "address"
        }
      ],
      "name": "Paused",
      "type": "event"
    },
    {
      "anonymous": false,
      "inputs": [
        {
          "indexed": true,
          "internalType": "address",
          "name": "submitter",
          "type": "address"
        },
        {
          "indexed": false,
          "internalType": "uint256",
          "name": "index",
          "type": "uint256"
        },
        {
          "indexed": false,
          "internalType": "bytes32",
          "name": "hash",
          "type": "bytes32"
        }
      ],
      "name": "SolutionAdded",
      "type": "event"
    },
    {
      "anonymous": false,
      "inputs": [
        {
          "indexed": true,
          "internalType": "address",
          "name": "from",
          "type": "address"
        },
        {
          "indexed": true,
          "internalType": "address",
          "name": "to",
          "type": "address"
        },
        {
          "indexed": true,
          "internalType": "uint256",
          "name": "tokenId",
          "type": "uint256"
        }
      ],
      "name": "Transfer",
      "type": "event"
    },
    {
      "anonymous": false,
      "inputs": [
        {
          "indexed": false,
          "internalType": "address",
          "name": "account",
          "type": "address"
        }
      ],
      "name": "Unpaused",
      "type": "event"
    },
    {
      "inputs": [
        {
          "internalType": "bytes32",
          "name": "_myid",
          "type": "bytes32"
        },
        {
          "internalType": "string",
          "name": "_result",
          "type": "string"
        }
      ],
      "name": "__callback",
      "outputs": [],
      "stateMutability": "pure",
      "type": "function",
      "constant": true
    },
    {
      "inputs": [
        {
          "internalType": "bytes32",
          "name": "",
          "type": "bytes32"
        },
        {
          "internalType": "string",
          "name": "",
          "type": "string"
        },
        {
          "internalType": "bytes",
          "name": "",
          "type": "bytes"
        }
      ],
      "name": "__callback",
      "outputs": [],
      "stateMutability": "pure",
      "type": "function",
      "constant": true
    },
    {
      "inputs": [
        {
          "internalType": "address",
          "name": "to",
          "type": "address"
        },
        {
          "internalType": "uint256",
          "name": "tokenId",
          "type": "uint256"
        }
      ],
      "name": "approve",
      "outputs": [],
      "stateMutability": "nonpayable",
      "type": "function"
    },
    {
      "inputs": [
        {
          "internalType": "address",
          "name": "owner",
          "type": "address"
        }
      ],
      "name": "balanceOf",
      "outputs": [
        {
          "internalType": "uint256",
          "name": "",
          "type": "uint256"
        }
      ],
      "stateMutability": "view",
      "type": "function",
      "constant": true
    },
    {
      "inputs": [
        {
          "internalType": "uint256",
          "name": "tokenId",
          "type": "uint256"
        }
      ],
      "name": "getApproved",
      "outputs": [
        {
          "internalType": "address",
          "name": "",
          "type": "address"
        }
      ],
      "stateMutability": "view",
      "type": "function",
      "constant": true
    },
    {
      "inputs": [
        {
          "internalType": "address",
          "name": "owner",
          "type": "address"
        },
        {
          "internalType": "address",
          "name": "operator",
          "type": "address"
        }
      ],
      "name": "isApprovedForAll",
      "outputs": [
        {
          "internalType": "bool",
          "name": "",
          "type": "bool"
        }
      ],
      "stateMutability": "view",
      "type": "function",
      "constant": true
    },
    {
      "inputs": [
        {
          "internalType": "address",
          "name": "to",
          "type": "address"
        },
        {
          "internalType": "uint256",
          "name": "tokenId",
          "type": "uint256"
        }
      ],
      "name": "mint",
      "outputs": [
        {
          "internalType": "bool",
          "name": "",
          "type": "bool"
        }
      ],
      "stateMutability": "nonpayable",
      "type": "function"
    },
    {
      "inputs": [],
      "name": "name",
      "outputs": [
        {
          "internalType": "string",
          "name": "",
          "type": "string"
        }
      ],
      "stateMutability": "view",
      "type": "function",
      "constant": true
    },
    {
      "inputs": [],
      "name": "owner",
      "outputs": [
        {
          "internalType": "address",
          "name": "",
          "type": "address"
        }
      ],
      "stateMutability": "view",
      "type": "function",
      "constant": true
    },
    {
      "inputs": [
        {
          "internalType": "uint256",
          "name": "tokenId",
          "type": "uint256"
        }
      ],
      "name": "ownerOf",
      "outputs": [
        {
          "internalType": "address",
          "name": "",
          "type": "address"
        }
      ],
      "stateMutability": "view",
      "type": "function",
      "constant": true
    },
    {
      "inputs": [],
      "name": "paused",
      "outputs": [
        {
          "internalType": "bool",
          "name": "",
          "type": "bool"
        }
      ],
      "stateMutability": "view",
      "type": "function",
      "constant": true
    },
    {
      "inputs": [],
      "name": "renounceOwnership",
      "outputs": [],
      "stateMutability": "nonpayable",
      "type": "function"
    },
    {
      "inputs": [
        {
          "internalType": "address",
          "name": "from",
          "type": "address"
        },
        {
          "internalType": "address",
          "name": "to",
          "type": "address"
        },
        {
          "internalType": "uint256",
          "name": "tokenId",
          "type": "uint256"
        }
      ],
      "name": "safeTransferFrom",
      "outputs": [],
      "stateMutability": "nonpayable",
      "type": "function"
    },
    {
      "inputs": [
        {
          "internalType": "address",
          "name": "from",
          "type": "address"
        },
        {
          "internalType": "address",
          "name": "to",
          "type": "address"
        },
        {
          "internalType": "uint256",
          "name": "tokenId",
          "type": "uint256"
        },
        {
          "internalType": "bytes",
          "name": "_data",
          "type": "bytes"
        }
      ],
      "name": "safeTransferFrom",
      "outputs": [],
      "stateMutability": "nonpayable",
      "type": "function"
    },
    {
      "inputs": [
        {
          "internalType": "address",
          "name": "operator",
          "type": "address"
        },
        {
          "internalType": "bool",
          "name": "approved",
          "type": "bool"
        }
      ],
      "name": "setApprovalForAll",
      "outputs": [],
      "stateMutability": "nonpayable",
      "type": "function"
    },
    {
      "inputs": [
        {
          "internalType": "bytes4",
          "name": "interfaceId",
          "type": "bytes4"
        }
      ],
      "name": "supportsInterface",
      "outputs": [
        {
          "internalType": "bool",
          "name": "",
          "type": "bool"
        }
      ],
      "stateMutability": "view",
      "type": "function",
      "constant": true
    },
    {
      "inputs": [],
      "name": "symbol",
      "outputs": [
        {
          "internalType": "string",
          "name": "",
          "type": "string"
        }
      ],
      "stateMutability": "view",
      "type": "function",
      "constant": true
    },
    {
      "inputs": [
        {
          "internalType": "uint256",
          "name": "index",
          "type": "uint256"
        }
      ],
      "name": "tokenByIndex",
      "outputs": [
        {
          "internalType": "uint256",
          "name": "",
          "type": "uint256"
        }
      ],
      "stateMutability": "view",
      "type": "function",
      "constant": true
    },
    {
      "inputs": [
        {
          "internalType": "address",
          "name": "owner",
          "type": "address"
        },
        {
          "internalType": "uint256",
          "name": "index",
          "type": "uint256"
        }
      ],
      "name": "tokenOfOwnerByIndex",
      "outputs": [
        {
          "internalType": "uint256",
          "name": "",
          "type": "uint256"
        }
      ],
      "stateMutability": "view",
      "type": "function",
      "constant": true
    },
    {
      "inputs": [
        {
          "internalType": "uint256",
          "name": "tokenId",
          "type": "uint256"
        }
      ],
      "name": "tokenURI",
      "outputs": [
        {
          "internalType": "string",
          "name": "",
          "type": "string"
        }
      ],
      "stateMutability": "view",
      "type": "function",
      "constant": true
    },
    {
      "inputs": [],
      "name": "totalSupply",
      "outputs": [
        {
          "internalType": "uint256",
          "name": "",
          "type": "uint256"
        }
      ],
      "stateMutability": "view",
      "type": "function",
      "constant": true
    },
    {
      "inputs": [
        {
          "internalType": "address",
          "name": "from",
          "type": "address"
        },
        {
          "internalType": "address",
          "name": "to",
          "type": "address"
        },
        {
          "internalType": "uint256",
          "name": "tokenId",
          "type": "uint256"
        }
      ],
      "name": "transferFrom",
      "outputs": [],
      "stateMutability": "nonpayable",
      "type": "function"
    },
    {
      "inputs": [
        {
          "internalType": "address",
          "name": "newOwner",
          "type": "address"
        }
      ],
      "name": "transferOwnership",
      "outputs": [],
      "stateMutability": "nonpayable",
      "type": "function"
    },
    {
      "inputs": [
        {
          "components": [
            {
              "internalType": "uint256[2]",
              "name": "a",
              "type": "uint256[2]"
            },
            {
              "internalType": "uint256[2][2]",
              "name": "b",
              "type": "uint256[2][2]"
            },
            {
              "internalType": "uint256[2]",
              "name": "c",
              "type": "uint256[2]"
            }
          ],
          "internalType": "struct SolnSquareVerifier.Proof",
          "name": "proof_",
          "type": "tuple"
        },
        {
          "internalType": "uint256[2]",
          "name": "input_",
          "type": "uint256[2]"
        },
        {
          "internalType": "uint256",
          "name": "tokenId",
          "type": "uint256"
        }
      ],
      "name": "mintVerify",
      "outputs": [],
      "stateMutability": "nonpayable",
      "type": "function"
    }
  ],
  "bytecode": "0x60806040523480156200001157600080fd5b50604051620047a3380380620047a38339818101604052810190620000379190620002ef565b6040518060400160405280600881526020017f43617073746f6e650000000000000000000000000000000000000000000000008152506040518060400160405280600381526020017f43415000000000000000000000000000000000000000000000000000000000008152508160009080519060200190620000bb92919062000228565b508060019080519060200190620000d492919062000228565b505050620000f7620000eb6200015a60201b60201c565b6200016260201b60201c565b6000600a60146101000a81548160ff02191690831515021790555080601160006101000a81548173ffffffffffffffffffffffffffffffffffffffff021916908373ffffffffffffffffffffffffffffffffffffffff16021790555050620003d9565b600033905090565b6000600a60009054906101000a900473ffffffffffffffffffffffffffffffffffffffff16905081600a60006101000a81548173ffffffffffffffffffffffffffffffffffffffff021916908373ffffffffffffffffffffffffffffffffffffffff1602179055508173ffffffffffffffffffffffffffffffffffffffff168173ffffffffffffffffffffffffffffffffffffffff167f8be0079c531659141344cd1fd0a4f28419497f9722a3daafe3b4186f6b6457e060405160405180910390a35050565b828054620002369062000355565b90600052602060002090601f0160209004810192826200025a5760008555620002a6565b82601f106200027557805160ff1916838001178555620002a6565b82800160010185558215620002a6579182015b82811115620002a557825182559160200191906001019062000288565b5b509050620002b59190620002b9565b5090565b5b80821115620002d4576000816000905550600101620002ba565b5090565b600081519050620002e981620003bf565b92915050565b600060208284031215620003085762000307620003ba565b5b60006200031884828501620002d8565b91505092915050565b60006200032e8262000335565b9050919050565b600073ffffffffffffffffffffffffffffffffffffffff82169050919050565b600060028204905060018216806200036e57607f821691505b602082108114156200038557620003846200038b565b5b50919050565b7f4e487b7100000000000000000000000000000000000000000000000000000000600052602260045260246000fd5b600080fd5b620003ca8162000321565b8114620003d657600080fd5b50565b6143ba80620003e96000396000f3fe608060405234801561001057600080fd5b50600436106101585760003560e01c80635c975abb116100c3578063a22cb4651161007c578063a22cb465146103d9578063a8062714146103f5578063b88d4fde14610411578063c87b56dd1461042d578063e985e9c51461045d578063f2fde38b1461048d57610158565b80635c975abb146103155780636352211e1461033357806370a0823114610363578063715018a6146103935780638da5cb5b1461039d57806395d89b41146103bb57610158565b806327dc297e1161011557806327dc297e146102315780632f745c591461024d57806338bbfa501461027d57806340c10f191461029957806342842e0e146102c95780634f6ccce7146102e557610158565b806301ffc9a71461015d57806306fdde031461018d578063081812fc146101ab578063095ea7b3146101db57806318160ddd146101f757806323b872dd14610215575b600080fd5b61017760048036038101906101729190612e6d565b6104a9565b60405161018491906135a8565b60405180910390f35b610195610523565b6040516101a291906135c3565b60405180910390f35b6101c560048036038101906101c09190612f1d565b6105b5565b6040516101d291906134fa565b60405180910390f35b6101f560048036038101906101f09190612d19565b61063a565b005b6101ff6107a6565b60405161020c9190613881565b60405180910390f35b61022f600480360381019061022a9190612c03565b6107b3565b005b61024b60048036038101906102469190612d86565b610813565b005b61026760048036038101906102629190612d19565b61086f565b6040516102749190613881565b60405180910390f35b61029760048036038101906102929190612de2565b610914565b005b6102b360048036038101906102ae9190612d19565b610919565b6040516102c091906135a8565b60405180910390f35b6102e360048036038101906102de9190612c03565b6109ab565b005b6102ff60048036038101906102fa9190612f1d565b6109cb565b60405161030c9190613881565b60405180910390f35b61031d610a3c565b60405161032a91906135a8565b60405180910390f35b61034d60048036038101906103489190612f1d565b610a53565b60405161035a91906134fa565b60405180910390f35b61037d60048036038101906103789190612b96565b610b05565b60405161038a9190613881565b60405180910390f35b61039b610bbd565b005b6103a5610c45565b6040516103b291906134fa565b60405180910390f35b6103c3610c6f565b6040516103d091906135c3565b60405180910390f35b6103f360048036038101906103ee9190612cd9565b610d01565b005b61040f600480360381019061040a9190612ec7565b610e82565b005b61042b60048036038101906104269190612c56565b610e9b565b005b61044760048036038101906104429190612f1d565b610efd565b60405161045491906135c3565b60405180910390f35b61047760048036038101906104729190612bc3565b610fb4565b60405161048491906135a8565b60405180910390f35b6104a760048036038101906104a29190612b96565b611048565b005b60007f780e9d63000000000000000000000000000000000000000000000000000000007bffffffffffffffffffffffffffffffffffffffffffffffffffffffff1916827bffffffffffffffffffffffffffffffffffffffffffffffffffffffff1916148061051c575061051b82611140565b5b9050919050565b60606000805461053290613bbb565b80601f016020809104026020016040519081016040528092919081815260200182805461055e90613bbb565b80156105ab5780601f10610580576101008083540402835291602001916105ab565b820191906000526020600020905b81548152906001019060200180831161058e57829003601f168201915b5050505050905090565b60006105c082611222565b6105ff576040517f08c379a00000000000000000000000000000000000000000000000000000000081526004016105f690613785565b60405180910390fd5b6004600083815260200190815260200160002060009054906101000a900473ffffffffffffffffffffffffffffffffffffffff169050919050565b600061064582610a53565b90508073ffffffffffffffffffffffffffffffffffffffff168373ffffffffffffffffffffffffffffffffffffffff1614156106b6576040517f08c379a00000000000000000000000000000000000000000000000000000000081526004016106ad90613845565b60405180910390fd5b6106be610c45565b73ffffffffffffffffffffffffffffffffffffffff163373ffffffffffffffffffffffffffffffffffffffff1614806106fd57506106fc8184610fb4565b5b61073c576040517f08c379a0000000000000000000000000000000000000000000000000000000008152600401610733906135e5565b60405180910390fd5b610746838361128e565b818373ffffffffffffffffffffffffffffffffffffffff168273ffffffffffffffffffffffffffffffffffffffff167f8c5be1e5ebec7d5bd14f71427d1e84f3dd0314c0f7b2291e5b200ac8c7c3b92560405160405180910390a4505050565b6000600880549050905090565b6107c46107be611347565b8261134f565b610803576040517f08c379a00000000000000000000000000000000000000000000000000000000081526004016107fa90613805565b60405180910390fd5b61080e83838361142d565b505050565b61086b8282600067ffffffffffffffff81111561083357610832613d52565b5b6040519080825280601f01601f1916602001820160405280156108655781602001600182028036833780820191505090505b50610914565b5050565b600061087a83610b05565b82106108bb576040517f08c379a00000000000000000000000000000000000000000000000000000000081526004016108b290613605565b60405180910390fd5b600660008473ffffffffffffffffffffffffffffffffffffffff1673ffffffffffffffffffffffffffffffffffffffff168152602001908152602001600020600083815260200190815260200160002054905092915050565b505050565b6000610923611347565b73ffffffffffffffffffffffffffffffffffffffff16610941610c45565b73ffffffffffffffffffffffffffffffffffffffff1614610997576040517f08c379a000000000000000000000000000000000000000000000000000000000815260040161098e906137a5565b60405180910390fd5b6109a18383611689565b6001905092915050565b6109c683838360405180602001604052806000815250610e9b565b505050565b60006109d56107a6565b8210610a16576040517f08c379a0000000000000000000000000000000000000000000000000000000008152600401610a0d90613825565b60405180910390fd5b60088281548110610a2a57610a29613d23565b5b90600052602060002001549050919050565b6000600a60149054906101000a900460ff16905090565b6000806002600084815260200190815260200160002060009054906101000a900473ffffffffffffffffffffffffffffffffffffffff169050600073ffffffffffffffffffffffffffffffffffffffff168173ffffffffffffffffffffffffffffffffffffffff161415610afc576040517f08c379a0000000000000000000000000000000000000000000000000000000008152600401610af390613745565b60405180910390fd5b80915050919050565b60008073ffffffffffffffffffffffffffffffffffffffff168273ffffffffffffffffffffffffffffffffffffffff161415610b76576040517f08c379a0000000000000000000000000000000000000000000000000000000008152600401610b6d90613725565b60405180910390fd5b600360008373ffffffffffffffffffffffffffffffffffffffff1673ffffffffffffffffffffffffffffffffffffffff168152602001908152602001600020549050919050565b610bc5611347565b73ffffffffffffffffffffffffffffffffffffffff16610be3610c45565b73ffffffffffffffffffffffffffffffffffffffff1614610c39576040517f08c379a0000000000000000000000000000000000000000000000000000000008152600401610c30906137a5565b60405180910390fd5b610c4360006116a0565b565b6000600a60009054906101000a900473ffffffffffffffffffffffffffffffffffffffff16905090565b606060018054610c7e90613bbb565b80601f0160208091040260200160405190810160405280929190818152602001828054610caa90613bbb565b8015610cf75780601f10610ccc57610100808354040283529160200191610cf7565b820191906000526020600020905b815481529060010190602001808311610cda57829003601f168201915b5050505050905090565b610d09611347565b73ffffffffffffffffffffffffffffffffffffffff168273ffffffffffffffffffffffffffffffffffffffff161415610d77576040517f08c379a0000000000000000000000000000000000000000000000000000000008152600401610d6e906136c5565b60405180910390fd5b8060056000610d84611347565b73ffffffffffffffffffffffffffffffffffffffff1673ffffffffffffffffffffffffffffffffffffffff16815260200190815260200160002060008473ffffffffffffffffffffffffffffffffffffffff1673ffffffffffffffffffffffffffffffffffffffff16815260200190815260200160002060006101000a81548160ff0219169083151502179055508173ffffffffffffffffffffffffffffffffffffffff16610e31611347565b73ffffffffffffffffffffffffffffffffffffffff167f17307eab39ab6107e8899845ad3d59bd9653f200f220920489ca2b5937696c3183604051610e7691906135a8565b60405180910390a35050565b610e8c8383611766565b610e963382611689565b505050565b610eac610ea6611347565b8361134f565b610eeb576040517f08c379a0000000000000000000000000000000000000000000000000000000008152600401610ee290613805565b60405180910390fd5b610ef7848484846119c3565b50505050565b6060610f0882611222565b610f1157600080fd5b601060008381526020019081526020016000208054610f2f90613bbb565b80601f0160208091040260200160405190810160405280929190818152602001828054610f5b90613bbb565b8015610fa85780601f10610f7d57610100808354040283529160200191610fa8565b820191906000526020600020905b815481529060010190602001808311610f8b57829003601f168201915b50505050509050919050565b6000600560008473ffffffffffffffffffffffffffffffffffffffff1673ffffffffffffffffffffffffffffffffffffffff16815260200190815260200160002060008373ffffffffffffffffffffffffffffffffffffffff1673ffffffffffffffffffffffffffffffffffffffff16815260200190815260200160002060009054906101000a900460ff16905092915050565b611050611347565b73ffffffffffffffffffffffffffffffffffffffff1661106e610c45565b73ffffffffffffffffffffffffffffffffffffffff16146110c4576040517f08c379a00000000000000000000000000000000000000000000000000000000081526004016110bb906137a5565b60405180910390fd5b600073ffffffffffffffffffffffffffffffffffffffff168173ffffffffffffffffffffffffffffffffffffffff161415611134576040517f08c379a000000000000000000000000000000000000000000000000000000000815260040161112b90613665565b60405180910390fd5b61113d816116a0565b50565b60007f80ac58cd000000000000000000000000000000000000000000000000000000007bffffffffffffffffffffffffffffffffffffffffffffffffffffffff1916827bffffffffffffffffffffffffffffffffffffffffffffffffffffffff1916148061120b57507f5b5e139f000000000000000000000000000000000000000000000000000000007bffffffffffffffffffffffffffffffffffffffffffffffffffffffff1916827bffffffffffffffffffffffffffffffffffffffffffffffffffffffff1916145b8061121b575061121a82611a1f565b5b9050919050565b60008073ffffffffffffffffffffffffffffffffffffffff166002600084815260200190815260200160002060009054906101000a900473ffffffffffffffffffffffffffffffffffffffff1673ffffffffffffffffffffffffffffffffffffffff1614159050919050565b816004600083815260200190815260200160002060006101000a81548173ffffffffffffffffffffffffffffffffffffffff021916908373ffffffffffffffffffffffffffffffffffffffff160217905550808273ffffffffffffffffffffffffffffffffffffffff1661130183610a53565b73ffffffffffffffffffffffffffffffffffffffff167f8c5be1e5ebec7d5bd14f71427d1e84f3dd0314c0f7b2291e5b200ac8c7c3b92560405160405180910390a45050565b600033905090565b600061135a82611222565b611399576040517f08c379a000000000000000000000000000000000000000000000000000000000815260040161139090613705565b60405180910390fd5b60006113a483610a53565b90508073ffffffffffffffffffffffffffffffffffffffff168473ffffffffffffffffffffffffffffffffffffffff16148061141357508373ffffffffffffffffffffffffffffffffffffffff166113fb846105b5565b73ffffffffffffffffffffffffffffffffffffffff16145b8061142457506114238185610fb4565b5b91505092915050565b8273ffffffffffffffffffffffffffffffffffffffff1661144d82610a53565b73ffffffffffffffffffffffffffffffffffffffff16146114a3576040517f08c379a000000000000000000000000000000000000000000000000000000000815260040161149a906137c5565b60405180910390fd5b600073ffffffffffffffffffffffffffffffffffffffff168273ffffffffffffffffffffffffffffffffffffffff161415611513576040517f08c379a000000000000000000000000000000000000000000000000000000000815260040161150a906136a5565b60405180910390fd5b61151e838383611a89565b61152960008261128e565b6001600360008573ffffffffffffffffffffffffffffffffffffffff1673ffffffffffffffffffffffffffffffffffffffff16815260200190815260200160002060008282546115799190613ac7565b925050819055506001600360008473ffffffffffffffffffffffffffffffffffffffff1673ffffffffffffffffffffffffffffffffffffffff16815260200190815260200160002060008282546115d09190613a40565b92505081905550816002600083815260200190815260200160002060006101000a81548173ffffffffffffffffffffffffffffffffffffffff021916908373ffffffffffffffffffffffffffffffffffffffff160217905550808273ffffffffffffffffffffffffffffffffffffffff168473ffffffffffffffffffffffffffffffffffffffff167fddf252ad1be2c89b69c2b068fc378daa952ba7f163c4a11628f55a4df523b3ef60405160405180910390a4505050565b6116938282611b9d565b61169c81611d6b565b5050565b6000600a60009054906101000a900473ffffffffffffffffffffffffffffffffffffffff16905081600a60006101000a81548173ffffffffffffffffffffffffffffffffffffffff021916908373ffffffffffffffffffffffffffffffffffffffff1602179055508173ffffffffffffffffffffffffffffffffffffffff168173ffffffffffffffffffffffffffffffffffffffff167f8be0079c531659141344cd1fd0a4f28419497f9722a3daafe3b4186f6b6457e060405160405180910390a35050565b600060405180608001604052808481526020018381526020013373ffffffffffffffffffffffffffffffffffffffff16815260200160125481525090506000816040516020016117b69190613865565b6040516020818303038152906040528051906020012090506013600082815260200190815260200160002060009054906101000a900460ff161561182f576040517f08c379a000000000000000000000000000000000000000000000000000000000815260040161182690613645565b60405180910390fd5b601160009054906101000a900473ffffffffffffffffffffffffffffffffffffffff1673ffffffffffffffffffffffffffffffffffffffff1663621e9ec0856000015186602001518760400151876040518563ffffffff1660e01b815260040161189c9493929190613561565b60206040518083038186803b1580156118b457600080fd5b505afa1580156118c8573d6000803e3d6000fd5b505050506040513d601f19601f820116820180604052508101906118ec9190612d59565b61192b576040517f08c379a0000000000000000000000000000000000000000000000000000000008152600401611922906137e5565b60405180910390fd5b60016013600083815260200190815260200160002060006101000a81548160ff0219169083151502179055503373ffffffffffffffffffffffffffffffffffffffff167fb28582aaae510e6d1868676347916349fa4c0c49734e1a01e4373ff26a57f092601260008154809291906119a290613c1e565b91905055836040516119b592919061389c565b60405180910390a250505050565b6119ce84848461142d565b6119da84848484611dfc565b611a19576040517f08c379a0000000000000000000000000000000000000000000000000000000008152600401611a1090613625565b60405180910390fd5b50505050565b60007f01ffc9a7000000000000000000000000000000000000000000000000000000007bffffffffffffffffffffffffffffffffffffffffffffffffffffffff1916827bffffffffffffffffffffffffffffffffffffffffffffffffffffffff1916149050919050565b611a94838383611f93565b600073ffffffffffffffffffffffffffffffffffffffff168373ffffffffffffffffffffffffffffffffffffffff161415611ad757611ad281611f98565b611b16565b8173ffffffffffffffffffffffffffffffffffffffff168373ffffffffffffffffffffffffffffffffffffffff1614611b1557611b148382611fe1565b5b5b600073ffffffffffffffffffffffffffffffffffffffff168273ffffffffffffffffffffffffffffffffffffffff161415611b5957611b548161214e565b611b98565b8273ffffffffffffffffffffffffffffffffffffffff168273ffffffffffffffffffffffffffffffffffffffff1614611b9757611b96828261221f565b5b5b505050565b600073ffffffffffffffffffffffffffffffffffffffff168273ffffffffffffffffffffffffffffffffffffffff161415611c0d576040517f08c379a0000000000000000000000000000000000000000000000000000000008152600401611c0490613765565b60405180910390fd5b611c1681611222565b15611c56576040517f08c379a0000000000000000000000000000000000000000000000000000000008152600401611c4d90613685565b60405180910390fd5b611c6260008383611a89565b6001600360008473ffffffffffffffffffffffffffffffffffffffff1673ffffffffffffffffffffffffffffffffffffffff1681526020019081526020016000206000828254611cb29190613a40565b92505081905550816002600083815260200190815260200160002060006101000a81548173ffffffffffffffffffffffffffffffffffffffff021916908373ffffffffffffffffffffffffffffffffffffffff160217905550808273ffffffffffffffffffffffffffffffffffffffff16600073ffffffffffffffffffffffffffffffffffffffff167fddf252ad1be2c89b69c2b068fc378daa952ba7f163c4a11628f55a4df523b3ef60405160405180910390a45050565b611d7481611222565b611db3576040517f08c379a0000000000000000000000000000000000000000000000000000000008152600401611daa906136e5565b60405180910390fd5b6000611dce611dc061229e565b611dc9846122be565b612425565b905080601060008481526020019081526020016000209080519060200190611df79291906127f7565b505050565b6000611e1d8473ffffffffffffffffffffffffffffffffffffffff16612469565b15611f86578373ffffffffffffffffffffffffffffffffffffffff1663150b7a02611e46611347565b8786866040518563ffffffff1660e01b8152600401611e689493929190613515565b602060405180830381600087803b158015611e8257600080fd5b505af1925050508015611eb357506040513d601f19601f82011682018060405250810190611eb09190612e9a565b60015b611f36573d8060008114611ee3576040519150601f19603f3d011682016040523d82523d6000602084013e611ee8565b606091505b50600081511415611f2e576040517f08c379a0000000000000000000000000000000000000000000000000000000008152600401611f2590613625565b60405180910390fd5b805181602001fd5b63150b7a0260e01b7bffffffffffffffffffffffffffffffffffffffffffffffffffffffff1916817bffffffffffffffffffffffffffffffffffffffffffffffffffffffff191614915050611f8b565b600190505b949350505050565b505050565b6008805490506009600083815260200190815260200160002081905550600881908060018154018082558091505060019003906000526020600020016000909190919091505550565b60006001611fee84610b05565b611ff89190613ac7565b90506000600760008481526020019081526020016000205490508181146120dd576000600660008673ffffffffffffffffffffffffffffffffffffffff1673ffffffffffffffffffffffffffffffffffffffff168152602001908152602001600020600084815260200190815260200160002054905080600660008773ffffffffffffffffffffffffffffffffffffffff1673ffffffffffffffffffffffffffffffffffffffff168152602001908152602001600020600084815260200190815260200160002081905550816007600083815260200190815260200160002081905550505b6007600084815260200190815260200160002060009055600660008573ffffffffffffffffffffffffffffffffffffffff1673ffffffffffffffffffffffffffffffffffffffff16815260200190815260200160002060008381526020019081526020016000206000905550505050565b600060016008805490506121629190613ac7565b905060006009600084815260200190815260200160002054905060006008838154811061219257612191613d23565b5b9060005260206000200154905080600883815481106121b4576121b3613d23565b5b90600052602060002001819055508160096000838152602001908152602001600020819055506009600085815260200190815260200160002060009055600880548061220357612202613cf4565b5b6001900381819060005260206000200160009055905550505050565b600061222a83610b05565b905081600660008573ffffffffffffffffffffffffffffffffffffffff1673ffffffffffffffffffffffffffffffffffffffff168152602001908152602001600020600083815260200190815260200160002081905550806007600084815260200190815260200160002081905550505050565b60606040518060600160405280603f8152602001614346603f9139905090565b60606000821415612306576040518060400160405280600181526020017f30000000000000000000000000000000000000000000000000000000000000008152509050612420565b600082905060005b6000821461233857808061232190613c1e565b915050600a826123319190613a96565b915061230e565b60008167ffffffffffffffff81111561235457612353613d52565b5b6040519080825280601f01601f1916602001820160405280156123865781602001600182028036833780820191505090505b50905060006001836123989190613ac7565b90505b6000861461241857600a86816123b4576123b3613c96565b5b0660300160f81b828280600190039350815181106123d5576123d4613d23565b5b60200101907effffffffffffffffffffffffffffffffffffffffffffffffffffffffffffff1916908160001a905350600a866124119190613a96565b955061239b565b819450505050505b919050565b6060612461838360405180602001604052806000815250604051806020016040528060008152506040518060200160405280600081525061247c565b905092915050565b600080823b905060008111915050919050565b6060600086905060008690506000869050600086905060008690506000815183518551875189516124ad9190613a40565b6124b79190613a40565b6124c19190613a40565b6124cb9190613a40565b67ffffffffffffffff8111156124e4576124e3613d52565b5b6040519080825280601f01601f1916602001820160405280156125165781602001600182028036833780820191505090505b5090506000819050600080600090505b88518110156125ae5788818151811061254257612541613d23565b5b602001015160f81c60f81b83838061255990613c1e565b94508151811061256c5761256b613d23565b5b60200101907effffffffffffffffffffffffffffffffffffffffffffffffffffffffffffff1916908160001a90535080806125a690613c1e565b915050612526565b600090505b875181101561263b578781815181106125cf576125ce613d23565b5b602001015160f81c60f81b8383806125e690613c1e565b9450815181106125f9576125f8613d23565b5b60200101907effffffffffffffffffffffffffffffffffffffffffffffffffffffffffffff1916908160001a905350808061263390613c1e565b9150506125b3565b600090505b86518110156126c85786818151811061265c5761265b613d23565b5b602001015160f81c60f81b83838061267390613c1e565b94508151811061268657612685613d23565b5b60200101907effffffffffffffffffffffffffffffffffffffffffffffffffffffffffffff1916908160001a90535080806126c090613c1e565b915050612640565b600090505b8551811015612755578581815181106126e9576126e8613d23565b5b602001015160f81c60f81b83838061270090613c1e565b94508151811061271357612712613d23565b5b60200101907effffffffffffffffffffffffffffffffffffffffffffffffffffffffffffff1916908160001a905350808061274d90613c1e565b9150506126cd565b600090505b84518110156127e25784818151811061277657612775613d23565b5b602001015160f81c60f81b83838061278d90613c1e565b9450815181106127a05761279f613d23565b5b60200101907effffffffffffffffffffffffffffffffffffffffffffffffffffffffffffff1916908160001a90535080806127da90613c1e565b91505061275a565b82995050505050505050505095945050505050565b82805461280390613bbb565b90600052602060002090601f016020900481019282612825576000855561286c565b82601f1061283e57805160ff191683800117855561286c565b8280016001018555821561286c579182015b8281111561286b578251825591602001919060010190612850565b5b509050612879919061287d565b5090565b5b8082111561289657600081600090555060010161287e565b5090565b60006128ad6128a8846138ea565b6138c5565b905080828560408602820111156128c7576128c6613d8b565b5b60005b858110156128f757816128dd8882612a2c565b8452602084019350604083019250506001810190506128ca565b5050509392505050565b600061291461290f84613910565b6138c5565b9050808285602086028201111561292e5761292d613d8b565b5b60005b8581101561295e57816129448882612b81565b845260208401935060208301925050600181019050612931565b5050509392505050565b600061297b61297684613936565b6138c5565b90508281526020810184848401111561299757612996613d90565b5b6129a2848285613b79565b509392505050565b60006129bd6129b884613967565b6138c5565b9050828152602081018484840111156129d9576129d8613d90565b5b6129e4848285613b79565b509392505050565b6000813590506129fb816142d2565b92915050565b600082601f830112612a1657612a15613d81565b5b6002612a2384828561289a565b91505092915050565b600082601f830112612a4157612a40613d81565b5b6002612a4e848285612901565b91505092915050565b600081359050612a66816142e9565b92915050565b600081519050612a7b816142e9565b92915050565b600081359050612a9081614300565b92915050565b600081359050612aa581614317565b92915050565b600081519050612aba81614317565b92915050565b600082601f830112612ad557612ad4613d81565b5b8135612ae5848260208601612968565b91505092915050565b600082601f830112612b0357612b02613d81565b5b8135612b138482602086016129aa565b91505092915050565b60006101008284031215612b3357612b32613d86565b5b612b3d60606138c5565b90506000612b4d84828501612a2c565b6000830152506040612b6184828501612a01565b60208301525060c0612b7584828501612a2c565b60408301525092915050565b600081359050612b908161432e565b92915050565b600060208284031215612bac57612bab613d9a565b5b6000612bba848285016129ec565b91505092915050565b60008060408385031215612bda57612bd9613d9a565b5b6000612be8858286016129ec565b9250506020612bf9858286016129ec565b9150509250929050565b600080600060608486031215612c1c57612c1b613d9a565b5b6000612c2a868287016129ec565b9350506020612c3b868287016129ec565b9250506040612c4c86828701612b81565b9150509250925092565b60008060008060808587031215612c7057612c6f613d9a565b5b6000612c7e878288016129ec565b9450506020612c8f878288016129ec565b9350506040612ca087828801612b81565b925050606085013567ffffffffffffffff811115612cc157612cc0613d95565b5b612ccd87828801612ac0565b91505092959194509250565b60008060408385031215612cf057612cef613d9a565b5b6000612cfe858286016129ec565b9250506020612d0f85828601612a57565b9150509250929050565b60008060408385031215612d3057612d2f613d9a565b5b6000612d3e858286016129ec565b9250506020612d4f85828601612b81565b9150509250929050565b600060208284031215612d6f57612d6e613d9a565b5b6000612d7d84828501612a6c565b91505092915050565b60008060408385031215612d9d57612d9c613d9a565b5b6000612dab85828601612a81565b925050602083013567ffffffffffffffff811115612dcc57612dcb613d95565b5b612dd885828601612aee565b9150509250929050565b600080600060608486031215612dfb57612dfa613d9a565b5b6000612e0986828701612a81565b935050602084013567ffffffffffffffff811115612e2a57612e29613d95565b5b612e3686828701612aee565b925050604084013567ffffffffffffffff811115612e5757612e56613d95565b5b612e6386828701612ac0565b9150509250925092565b600060208284031215612e8357612e82613d9a565b5b6000612e9184828501612a96565b91505092915050565b600060208284031215612eb057612eaf613d9a565b5b6000612ebe84828501612aab565b91505092915050565b60008060006101608486031215612ee157612ee0613d9a565b5b6000612eef86828701612b1c565b935050610100612f0186828701612a2c565b925050610140612f1386828701612b81565b9150509250925092565b600060208284031215612f3357612f32613d9a565b5b6000612f4184828501612b81565b91505092915050565b6000612f568383613046565b60408301905092915050565b6000612f6e83836134dc565b60208301905092915050565b612f8381613afb565b82525050565b612f9281613afb565b82525050565b612fa1816139ac565b612fab81846139f2565b9250612fb682613998565b8060005b83811015612fe7578151612fce8782612f4a565b9650612fd9836139d8565b925050600181019050612fba565b505050505050565b612ff8816139ac565b61300281846139fd565b925061300d82613998565b8060005b8381101561303e5781516130258782612f4a565b9650613030836139d8565b925050600181019050613011565b505050505050565b61304f816139b7565b6130598184613a08565b9250613064826139a2565b8060005b8381101561309557815161307c8782612f62565b9650613087836139e5565b925050600181019050613068565b505050505050565b6130a6816139b7565b6130b08184613a13565b92506130bb826139a2565b8060005b838110156130ec5781516130d38782612f62565b96506130de836139e5565b9250506001810190506130bf565b505050505050565b6130fd81613b0d565b82525050565b61310c81613b19565b82525050565b600061311d826139c2565b6131278185613a1e565b9350613137818560208601613b88565b61314081613d9f565b840191505092915050565b6000613156826139cd565b6131608185613a2f565b9350613170818560208601613b88565b61317981613d9f565b840191505092915050565b6000613191603e83613a2f565b915061319c82613db0565b604082019050919050565b60006131b4602b83613a2f565b91506131bf82613dff565b604082019050919050565b60006131d7603283613a2f565b91506131e282613e4e565b604082019050919050565b60006131fa601783613a2f565b915061320582613e9d565b602082019050919050565b600061321d602683613a2f565b915061322882613ec6565b604082019050919050565b6000613240601c83613a2f565b915061324b82613f15565b602082019050919050565b6000613263602483613a2f565b915061326e82613f3e565b604082019050919050565b6000613286601983613a2f565b915061329182613f8d565b602082019050919050565b60006132a9601483613a2f565b91506132b482613fb6565b602082019050919050565b60006132cc602c83613a2f565b91506132d782613fdf565b604082019050919050565b60006132ef602a83613a2f565b91506132fa8261402e565b604082019050919050565b6000613312602983613a2f565b915061331d8261407d565b604082019050919050565b6000613335602083613a2f565b9150613340826140cc565b602082019050919050565b6000613358602c83613a2f565b9150613363826140f5565b604082019050919050565b600061337b602083613a2f565b915061338682614144565b602082019050919050565b600061339e602983613a2f565b91506133a98261416d565b604082019050919050565b60006133c1601283613a2f565b91506133cc826141bc565b602082019050919050565b60006133e4603183613a2f565b91506133ef826141e5565b604082019050919050565b6000613407602c83613a2f565b915061341282614234565b604082019050919050565b600061342a602483613a2f565b915061343582614283565b604082019050919050565b610100820160008201516134576000850182613046565b50602082015161346a6040850182612f98565b50604082015161347d60c0850182613046565b50505050565b6101808201600082015161349a6000850182613440565b5060208201516134ae610100850182613046565b5060408201516134c2610140850182612f7a565b5060608201516134d66101608501826134dc565b50505050565b6134e581613b6f565b82525050565b6134f481613b6f565b82525050565b600060208201905061350f6000830184612f89565b92915050565b600060808201905061352a6000830187612f89565b6135376020830186612f89565b61354460408301856134eb565b81810360608301526135568184613112565b905095945050505050565b600061014082019050613577600083018761309d565b6135846040830186612fef565b61359160c083018561309d565b61359f61010083018461309d565b95945050505050565b60006020820190506135bd60008301846130f4565b92915050565b600060208201905081810360008301526135dd818461314b565b905092915050565b600060208201905081810360008301526135fe81613184565b9050919050565b6000602082019050818103600083015261361e816131a7565b9050919050565b6000602082019050818103600083015261363e816131ca565b9050919050565b6000602082019050818103600083015261365e816131ed565b9050919050565b6000602082019050818103600083015261367e81613210565b9050919050565b6000602082019050818103600083015261369e81613233565b9050919050565b600060208201905081810360008301526136be81613256565b9050919050565b600060208201905081810360008301526136de81613279565b9050919050565b600060208201905081810360008301526136fe8161329c565b9050919050565b6000602082019050818103600083015261371e816132bf565b9050919050565b6000602082019050818103600083015261373e816132e2565b9050919050565b6000602082019050818103600083015261375e81613305565b9050919050565b6000602082019050818103600083015261377e81613328565b9050919050565b6000602082019050818103600083015261379e8161334b565b9050919050565b600060208201905081810360008301526137be8161336e565b9050919050565b600060208201905081810360008301526137de81613391565b9050919050565b600060208201905081810360008301526137fe816133b4565b9050919050565b6000602082019050818103600083015261381e816133d7565b9050919050565b6000602082019050818103600083015261383e816133fa565b9050919050565b6000602082019050818103600083015261385e8161341d565b9050919050565b60006101808201905061387b6000830184613483565b92915050565b600060208201905061389660008301846134eb565b92915050565b60006040820190506138b160008301856134eb565b6138be6020830184613103565b9392505050565b60006138cf6138e0565b90506138db8282613bed565b919050565b6000604051905090565b600067ffffffffffffffff82111561390557613904613d52565b5b602082029050919050565b600067ffffffffffffffff82111561392b5761392a613d52565b5b602082029050919050565b600067ffffffffffffffff82111561395157613950613d52565b5b61395a82613d9f565b9050602081019050919050565b600067ffffffffffffffff82111561398257613981613d52565b5b61398b82613d9f565b9050602081019050919050565b6000819050919050565b6000819050919050565b600060029050919050565b600060029050919050565b600081519050919050565b600081519050919050565b6000602082019050919050565b6000602082019050919050565b600081905092915050565b600081905092915050565b600081905092915050565b600081905092915050565b600082825260208201905092915050565b600082825260208201905092915050565b6000613a4b82613b6f565b9150613a5683613b6f565b9250827fffffffffffffffffffffffffffffffffffffffffffffffffffffffffffffffff03821115613a8b57613a8a613c67565b5b828201905092915050565b6000613aa182613b6f565b9150613aac83613b6f565b925082613abc57613abb613c96565b5b828204905092915050565b6000613ad282613b6f565b9150613add83613b6f565b925082821015613af057613aef613c67565b5b828203905092915050565b6000613b0682613b4f565b9050919050565b60008115159050919050565b6000819050919050565b60007fffffffff0000000000000000000000000000000000000000000000000000000082169050919050565b600073ffffffffffffffffffffffffffffffffffffffff82169050919050565b6000819050919050565b82818337600083830152505050565b60005b83811015613ba6578082015181840152602081019050613b8b565b83811115613bb5576000848401525b50505050565b60006002820490506001821680613bd357607f821691505b60208210811415613be757613be6613cc5565b5b50919050565b613bf682613d9f565b810181811067ffffffffffffffff82111715613c1557613c14613d52565b5b80604052505050565b6000613c2982613b6f565b91507fffffffffffffffffffffffffffffffffffffffffffffffffffffffffffffffff821415613c5c57613c5b613c67565b5b600182019050919050565b7f4e487b7100000000000000000000000000000000000000000000000000000000600052601160045260246000fd5b7f4e487b7100000000000000000000000000000000000000000000000000000000600052601260045260246000fd5b7f4e487b7100000000000000000000000000000000000000000000000000000000600052602260045260246000fd5b7f4e487b7100000000000000000000000000000000000000000000000000000000600052603160045260246000fd5b7f4e487b7100000000000000000000000000000000000000000000000000000000600052603260045260246000fd5b7f4e487b7100000000000000000000000000000000000000000000000000000000600052604160045260246000fd5b600080fd5b600080fd5b600080fd5b600080fd5b600080fd5b600080fd5b6000601f19601f8301169050919050565b7f53656e6465722068617320746f206265206f776e6572206f7220746f2061707060008201527f726f76656420666f72207370656e6420616c6c2074686520746f6b656e730000602082015250565b7f455243373231456e756d657261626c653a206f776e657220696e646578206f7560008201527f74206f6620626f756e6473000000000000000000000000000000000000000000602082015250565b7f4552433732313a207472616e7366657220746f206e6f6e20455243373231526560008201527f63656976657220696d706c656d656e7465720000000000000000000000000000602082015250565b7f536f6c7574696f6e2065786973747320616c7265616479000000000000000000600082015250565b7f4f776e61626c653a206e6577206f776e657220697320746865207a65726f206160008201527f6464726573730000000000000000000000000000000000000000000000000000602082015250565b7f4552433732313a20746f6b656e20616c7265616479206d696e74656400000000600082015250565b7f4552433732313a207472616e7366657220746f20746865207a65726f2061646460008201527f7265737300000000000000000000000000000000000000000000000000000000602082015250565b7f4552433732313a20617070726f766520746f2063616c6c657200000000000000600082015250565b7f546f6b656e20646f6573206e6f74206578697374000000000000000000000000600082015250565b7f4552433732313a206f70657261746f7220717565727920666f72206e6f6e657860008201527f697374656e7420746f6b656e0000000000000000000000000000000000000000602082015250565b7f4552433732313a2062616c616e636520717565727920666f7220746865207a6560008201527f726f206164647265737300000000000000000000000000000000000000000000602082015250565b7f4552433732313a206f776e657220717565727920666f72206e6f6e657869737460008201527f656e7420746f6b656e0000000000000000000000000000000000000000000000602082015250565b7f4552433732313a206d696e7420746f20746865207a65726f2061646472657373600082015250565b7f4552433732313a20617070726f76656420717565727920666f72206e6f6e657860008201527f697374656e7420746f6b656e0000000000000000000000000000000000000000602082015250565b7f4f776e61626c653a2063616c6c6572206973206e6f7420746865206f776e6572600082015250565b7f4552433732313a207472616e73666572206f6620746f6b656e2074686174206960008201527f73206e6f74206f776e0000000000000000000000000000000000000000000000602082015250565b7f536f6c7574696f6e206e6f742076616c69640000000000000000000000000000600082015250565b7f4552433732313a207472616e736665722063616c6c6572206973206e6f74206f60008201527f776e6572206e6f7220617070726f766564000000000000000000000000000000602082015250565b7f455243373231456e756d657261626c653a20676c6f62616c20696e646578206f60008201527f7574206f6620626f756e64730000000000000000000000000000000000000000602082015250565b7f53686f756c64206e6f7420626520746865206f776e6572206f6620746865207460008201527f6f6b656e00000000000000000000000000000000000000000000000000000000602082015250565b6142db81613afb565b81146142e657600080fd5b50565b6142f281613b0d565b81146142fd57600080fd5b50565b61430981613b19565b811461431457600080fd5b50565b61432081613b23565b811461432b57600080fd5b50565b61433781613b6f565b811461434257600080fd5b5056fe68747470733a2f2f73332d75732d776573742d322e616d617a6f6e6177732e636f6d2f756461636974792d626c6f636b636861696e2f63617073746f6e652fa2646970667358221220ce0f16fab6aa038328a92a6107d861be2c8b4bb7e736c395f7280d2fdbf8122864736f6c63430008060033",
  "immutableReferences": {},
  "source": "//SPDX-License-Identifier: MIT\npragma solidity 0.8.6;\n\nimport \"./ERC721Mintable.sol\";\nimport \"./SquareVerifier.sol\";\n\ncontract SolnSquareVerifier is CapstoneERC721Token {\n    Verifier private verifierContract;\n    uint256 private index;\n\n    struct Proof {\n        uint[2] a;\n        uint[2][2] b;\n        uint[2] c;\n    }\n    struct Solution {\n        Proof _proof;\n        uint[2] _input;\n        address _submitter;\n        uint256 _index;\n    }\n\n    mapping(bytes32 => bool) solutions;\n\n    event SolutionAdded(address indexed submitter, uint256 index, bytes32 hash);\n\n    constructor(address _verifierContract) {\n        verifierContract = Verifier(_verifierContract);\n    }\n\n    function submitProof(Proof memory proof_, uint[2] memory input_) internal {\n        Solution memory solution = Solution ({\n            _proof: proof_,\n            _input: input_,\n            _submitter: msg.sender,\n            _index: index\n        });\n\n        bytes32 hash = keccak256(abi.encode(solution));\n\n        // Does the solution exist already?\n        require(!solutions[hash], \"Solution exists already\");\n\n        // Verify the proof\n        require(verifierContract.verifyTx(proof_.a, proof_.b, proof_.c, input_),\n            \"Solution not valid\");\n\n        // Proof is valid so add it to the array\n        solutions[hash] = true;\n\n        emit SolutionAdded(msg.sender, index++, hash);\n    }\n\n    /**\n     * @notice This function mints a new token after verifying that the sender\n     * has indeed solved the key and that the solution is unique\n     * @param proof_ the proof being submitted\n     * @param input_ the input to the proof\n     * @param tokenId the Id of the token to be minted\n     */\n    function mintVerify(Proof memory proof_, uint[2] memory input_, uint256 tokenId) external {\n        submitProof(proof_, input_);\n        super._mint(msg.sender, tokenId);\n    }\n}",
  "sourcePath": "/Users/georgesdib/Dev/blockchain-developer/Blockchain-Capstone/eth-contracts/contracts/SolnSquareVerifier.sol",
  "compiler": {
    "name": "solc",
    "version": "0.8.6+commit.11564f7e.Emscripten.clang"
  },
  "schemaVersion": "3.4.1",
  "updatedAt": "2021-07-10T20:07:24.072Z",
  "networkType": "ethereum",
  "devdoc": {
    "kind": "dev",
    "methods": {
      "approve(address,uint256)": {
        "details": "overrides ERC721 approve to allow for contract owner to approve"
      },
      "balanceOf(address)": {
        "details": "See {IERC721-balanceOf}."
      },
      "getApproved(uint256)": {
        "details": "See {IERC721-getApproved}."
      },
      "isApprovedForAll(address,address)": {
        "details": "See {IERC721-isApprovedForAll}."
      },
      "mint(address,uint256)": {
        "details": "function mint",
        "params": {
          "to": "address to give the newly minted token to",
          "tokenId": "the ID of the new token to mint"
        },
        "returns": {
          "_0": "boolean to indicate success"
        }
      },
      "mintVerify((uint256[2],uint256[2][2],uint256[2]),uint256[2],uint256)": {
        "params": {
          "input_": "the input to the proof",
          "proof_": "the proof being submitted",
          "tokenId": "the Id of the token to be minted"
        }
      },
      "name()": {
        "details": "See {IERC721Metadata-name}."
      },
      "owner()": {
        "details": "Returns the address of the current owner."
      },
      "ownerOf(uint256)": {
        "details": "See {IERC721-ownerOf}."
      },
      "paused()": {
        "details": "Returns true if the contract is paused, and false otherwise."
      },
      "renounceOwnership()": {
        "details": "Leaves the contract without owner. It will not be possible to call `onlyOwner` functions anymore. Can only be called by the current owner. NOTE: Renouncing ownership will leave the contract without an owner, thereby removing any functionality that is only available to the owner."
      },
      "safeTransferFrom(address,address,uint256)": {
        "details": "See {IERC721-safeTransferFrom}."
      },
      "safeTransferFrom(address,address,uint256,bytes)": {
        "details": "See {IERC721-safeTransferFrom}."
      },
      "setApprovalForAll(address,bool)": {
        "details": "See {IERC721-setApprovalForAll}."
      },
      "supportsInterface(bytes4)": {
        "details": "See {IERC165-supportsInterface}."
      },
      "symbol()": {
        "details": "See {IERC721Metadata-symbol}."
      },
      "tokenByIndex(uint256)": {
        "details": "See {IERC721Enumerable-tokenByIndex}."
      },
      "tokenOfOwnerByIndex(address,uint256)": {
        "details": "See {IERC721Enumerable-tokenOfOwnerByIndex}."
      },
      "tokenURI(uint256)": {
        "details": "overrides ERC721 tokenURI to use _tokenURIs to be able to use oraclize"
      },
      "totalSupply()": {
        "details": "See {IERC721Enumerable-totalSupply}."
      },
      "transferFrom(address,address,uint256)": {
        "details": "See {IERC721-transferFrom}."
      },
      "transferOwnership(address)": {
        "details": "Transfers ownership of the contract to a new account (`newOwner`). Can only be called by the current owner."
      }
    },
    "version": 1
  },
  "userdoc": {
    "kind": "user",
    "methods": {
      "mintVerify((uint256[2],uint256[2][2],uint256[2]),uint256[2],uint256)": {
        "notice": "This function mints a new token after verifying that the sender has indeed solved the key and that the solution is unique"
      }
    },
    "version": 1
  }
}